{
  "contractName": "Collateral",
  "abi": [
    {
      "inputs": [
        {
          "internalType": "address",
          "name": "moneyAddr",
          "type": "address"
        },
        {
          "internalType": "address",
          "name": "fxAddr",
          "type": "address"
        }
      ],
      "stateMutability": "nonpayable",
      "type": "constructor"
    },
    {
      "anonymous": false,
      "inputs": [
        {
          "indexed": false,
          "internalType": "address",
          "name": "addr",
          "type": "address"
        }
      ],
      "name": "DEBUG",
      "type": "event"
    },
    {
      "anonymous": false,
      "inputs": [
        {
          "indexed": true,
          "internalType": "address",
          "name": "sender",
          "type": "address"
        }
      ],
      "name": "DelColBook",
      "type": "event"
    },
    {
      "anonymous": false,
      "inputs": [
        {
          "indexed": true,
          "internalType": "address",
          "name": "addr",
          "type": "address"
        }
      ],
      "name": "PartialLiquidation",
      "type": "event"
    },
    {
      "anonymous": false,
      "inputs": [
        {
          "indexed": true,
          "internalType": "address",
          "name": "requester",
          "type": "address"
        }
      ],
      "name": "RegisterFILCustodyAddr",
      "type": "event"
    },
    {
      "anonymous": false,
      "inputs": [
        {
          "indexed": true,
          "internalType": "address",
          "name": "sender",
          "type": "address"
        }
      ],
      "name": "RequestFILCustodyAddr",
      "type": "event"
    },
    {
      "anonymous": false,
      "inputs": [
        {
          "indexed": true,
          "internalType": "address",
          "name": "sender",
          "type": "address"
        }
      ],
      "name": "SetColBook",
      "type": "event"
    },
    {
      "anonymous": false,
      "inputs": [
        {
          "indexed": true,
          "internalType": "address",
          "name": "sender",
          "type": "address"
        }
      ],
      "name": "UpSizeETH",
      "type": "event"
    },
    {
      "anonymous": false,
      "inputs": [
        {
          "indexed": true,
          "internalType": "address",
          "name": "sender",
          "type": "address"
        }
      ],
      "name": "UpSizeFIL",
      "type": "event"
    },
    {
      "inputs": [
        {
          "internalType": "address",
          "name": "moneyAddr",
          "type": "address"
        },
        {
          "internalType": "address",
          "name": "fxAddr",
          "type": "address"
        }
      ],
      "name": "setMarketAddr",
      "outputs": [],
      "stateMutability": "nonpayable",
      "type": "function"
    },
    {
      "inputs": [
        {
          "internalType": "address",
          "name": "loanAddr",
          "type": "address"
        }
      ],
      "name": "setLoanAddr",
      "outputs": [],
      "stateMutability": "nonpayable",
      "type": "function"
    },
    {
      "inputs": [
        {
          "internalType": "string",
          "name": "id",
          "type": "string"
        },
        {
          "internalType": "string",
          "name": "userAddrFIL",
          "type": "string"
        }
      ],
      "name": "setColBook",
      "outputs": [],
      "stateMutability": "payable",
      "type": "function",
      "payable": true
    },
    {
      "inputs": [
        {
          "internalType": "enum MoneyMarket.Ccy",
          "name": "ccy",
          "type": "uint8"
        },
        {
          "internalType": "uint256",
          "name": "amt",
          "type": "uint256"
        },
        {
          "internalType": "address",
          "name": "addr",
          "type": "address"
        }
      ],
      "name": "useCollateral",
      "outputs": [],
      "stateMutability": "nonpayable",
      "type": "function"
    },
    {
      "inputs": [
        {
          "internalType": "uint256",
          "name": "amt",
          "type": "uint256"
        },
        {
          "internalType": "enum MoneyMarket.Ccy",
          "name": "ccy",
          "type": "uint8"
        },
        {
          "internalType": "address",
          "name": "addr",
          "type": "address"
        }
      ],
      "name": "isCovered",
      "outputs": [
        {
          "internalType": "bool",
          "name": "",
          "type": "bool"
        }
      ],
      "stateMutability": "view",
      "type": "function",
      "constant": true
    },
    {
      "inputs": [
        {
          "internalType": "uint256",
          "name": "amt",
          "type": "uint256"
        },
        {
          "internalType": "address",
          "name": "addr",
          "type": "address"
        }
      ],
      "name": "getCoverage",
      "outputs": [
        {
          "internalType": "uint256",
          "name": "",
          "type": "uint256"
        }
      ],
      "stateMutability": "view",
      "type": "function",
      "constant": true
    },
    {
      "inputs": [
        {
          "internalType": "address",
          "name": "_addr",
          "type": "address"
        }
      ],
      "name": "addressToString",
      "outputs": [
        {
          "internalType": "string",
          "name": "",
          "type": "string"
        }
      ],
      "stateMutability": "pure",
      "type": "function",
      "constant": true
    },
    {
      "inputs": [
        {
          "internalType": "address",
          "name": "addr",
          "type": "address"
        }
      ],
      "name": "updateState",
      "outputs": [],
      "stateMutability": "nonpayable",
      "type": "function"
    },
    {
      "inputs": [],
      "name": "updateAllState",
      "outputs": [],
      "stateMutability": "nonpayable",
      "type": "function"
    },
    {
      "inputs": [
        {
          "internalType": "address",
          "name": "borrower",
          "type": "address"
        },
        {
          "internalType": "uint256",
          "name": "amount",
          "type": "uint256"
        }
      ],
      "name": "partialLiquidation",
      "outputs": [],
      "stateMutability": "nonpayable",
      "type": "function"
    },
    {
      "inputs": [
        {
          "internalType": "address",
          "name": "borrower",
          "type": "address"
        },
        {
          "internalType": "uint256",
          "name": "amount",
          "type": "uint256"
        }
      ],
      "name": "liquiadtion",
      "outputs": [],
      "stateMutability": "nonpayable",
      "type": "function"
    },
    {
      "inputs": [
        {
          "internalType": "address",
          "name": "borrower",
          "type": "address"
        },
        {
          "internalType": "address",
          "name": "liquidProvider",
          "type": "address"
        },
        {
          "internalType": "uint256",
          "name": "amount",
          "type": "uint256"
        }
      ],
      "name": "recoverPartialLiquidation",
      "outputs": [],
      "stateMutability": "nonpayable",
      "type": "function"
    },
    {
      "inputs": [],
      "name": "upSizeETH",
      "outputs": [],
      "stateMutability": "payable",
      "type": "function",
      "payable": true
    },
    {
      "inputs": [
        {
          "internalType": "uint256",
          "name": "amtFIL",
          "type": "uint256"
        }
      ],
      "name": "upSizeFIL",
      "outputs": [],
      "stateMutability": "payable",
      "type": "function",
      "payable": true
    },
    {
      "inputs": [],
      "name": "delColBook",
      "outputs": [],
      "stateMutability": "nonpayable",
      "type": "function"
    },
    {
      "inputs": [
        {
          "internalType": "address",
          "name": "addr",
          "type": "address"
        }
      ],
      "name": "getOneBook",
      "outputs": [
        {
          "components": [
            {
              "internalType": "string",
              "name": "id",
              "type": "string"
            },
            {
              "internalType": "address",
              "name": "addrETH",
              "type": "address"
            },
            {
              "internalType": "string",
              "name": "addrFIL",
              "type": "string"
            },
            {
              "internalType": "string",
              "name": "userAddrFIL",
              "type": "string"
            },
            {
              "internalType": "uint256",
              "name": "amtETH",
              "type": "uint256"
            },
            {
              "internalType": "uint256",
              "name": "amtFIL",
              "type": "uint256"
            },
            {
              "internalType": "uint256",
              "name": "amtFILValue",
              "type": "uint256"
            },
            {
              "internalType": "uint256",
              "name": "inuseETH",
              "type": "uint256"
            },
            {
              "internalType": "uint256",
              "name": "inuseFIL",
              "type": "uint256"
            },
            {
              "internalType": "uint256",
              "name": "inuseFILValue",
              "type": "uint256"
            },
            {
              "internalType": "uint256",
              "name": "coverage",
              "type": "uint256"
            },
            {
              "internalType": "bool",
              "name": "isAvailable",
              "type": "bool"
            },
            {
              "internalType": "enum Collateral.State",
              "name": "state",
              "type": "uint8"
            }
          ],
          "internalType": "struct Collateral.ColBook",
          "name": "",
          "type": "tuple"
        }
      ],
      "stateMutability": "view",
      "type": "function",
      "constant": true
    },
    {
      "inputs": [],
      "name": "getAllBooks",
      "outputs": [
        {
          "components": [
            {
              "internalType": "string",
              "name": "id",
              "type": "string"
            },
            {
              "internalType": "address",
              "name": "addrETH",
              "type": "address"
            },
            {
              "internalType": "string",
              "name": "addrFIL",
              "type": "string"
            },
            {
              "internalType": "string",
              "name": "userAddrFIL",
              "type": "string"
            },
            {
              "internalType": "uint256",
              "name": "amtETH",
              "type": "uint256"
            },
            {
              "internalType": "uint256",
              "name": "amtFIL",
              "type": "uint256"
            },
            {
              "internalType": "uint256",
              "name": "amtFILValue",
              "type": "uint256"
            },
            {
              "internalType": "uint256",
              "name": "inuseETH",
              "type": "uint256"
            },
            {
              "internalType": "uint256",
              "name": "inuseFIL",
              "type": "uint256"
            },
            {
              "internalType": "uint256",
              "name": "inuseFILValue",
              "type": "uint256"
            },
            {
              "internalType": "uint256",
              "name": "coverage",
              "type": "uint256"
            },
            {
              "internalType": "bool",
              "name": "isAvailable",
              "type": "bool"
            },
            {
              "internalType": "enum Collateral.State",
              "name": "state",
              "type": "uint8"
            }
          ],
          "internalType": "struct Collateral.ColBook[]",
          "name": "",
          "type": "tuple[]"
        }
      ],
      "stateMutability": "view",
      "type": "function",
      "constant": true
    },
    {
      "inputs": [],
      "name": "getAllUsers",
      "outputs": [
        {
          "internalType": "address[]",
          "name": "",
          "type": "address[]"
        }
      ],
      "stateMutability": "view",
      "type": "function",
      "constant": true
    },
    {
      "inputs": [
        {
          "internalType": "address",
          "name": "addr",
          "type": "address"
        }
      ],
      "name": "getColState",
      "outputs": [
        {
          "internalType": "enum Collateral.State",
          "name": "",
          "type": "uint8"
        }
      ],
      "stateMutability": "view",
      "type": "function",
      "constant": true
    },
    {
      "inputs": [],
      "name": "getFILETH",
      "outputs": [
        {
          "internalType": "uint256",
          "name": "",
          "type": "uint256"
        }
      ],
      "stateMutability": "view",
      "type": "function",
      "constant": true
    },
    {
      "inputs": [
        {
          "internalType": "address",
          "name": "addr",
          "type": "address"
        }
      ],
      "name": "updateFILValue",
      "outputs": [],
      "stateMutability": "nonpayable",
      "type": "function"
    },
    {
      "inputs": [],
      "name": "updateAllFILValue",
      "outputs": [],
      "stateMutability": "nonpayable",
      "type": "function"
    },
    {
      "inputs": [],
      "name": "requestFILCustodyAddr",
      "outputs": [],
      "stateMutability": "nonpayable",
      "type": "function"
    },
    {
      "inputs": [
        {
          "internalType": "string",
          "name": "addrFIL",
          "type": "string"
        },
        {
          "internalType": "address",
          "name": "requester",
          "type": "address"
        }
      ],
      "name": "registerFILCustodyAddr",
      "outputs": [],
      "stateMutability": "nonpayable",
      "type": "function"
    },
    {
      "inputs": [],
      "name": "getAllFILCustodyAddr",
      "outputs": [
        {
          "internalType": "string[]",
          "name": "",
          "type": "string[]"
        }
      ],
      "stateMutability": "view",
      "type": "function",
      "constant": true
    },
    {
      "inputs": [
        {
          "internalType": "uint256",
          "name": "seed",
          "type": "uint256"
        }
      ],
      "name": "getRandom",
      "outputs": [
        {
          "internalType": "uint256",
          "name": "",
          "type": "uint256"
        }
      ],
      "stateMutability": "view",
      "type": "function",
      "constant": true
    },
    {
      "inputs": [
        {
          "internalType": "uint256",
          "name": "seed",
          "type": "uint256"
        }
      ],
      "name": "getRandFILCustodyAddr",
      "outputs": [
        {
          "internalType": "string",
          "name": "",
          "type": "string"
        }
      ],
      "stateMutability": "view",
      "type": "function",
      "constant": true
    }
  ],
  "bytecode": "0x60806040523480156200001157600080fd5b5060405162002ebf38038062002ebf833981016040819052620000349162000071565b600280546001600160a01b03199081163317909155600380546001600160a01b0394851690831617905560048054929093169116179055620000c8565b6000806040838503121562000084578182fd5b82516200009181620000af565b6020840151909250620000a481620000af565b809150509250929050565b6001600160a01b0381168114620000c557600080fd5b50565b612de780620000d86000396000f3fe60806040526004361061013c5760003560e01c806314fb2fb11461014157806321ee07f41461016c578063302abb731461018e57806330bfa152146101a557806331f652db146101d2578063345223c8146101f2578063354528e8146102125780634348594e14610234578063481193011461025457806357d8df5a146102745780635e57966d146102a15780635fd222ea146102c15780636106a9d1146102d657806374e8de77146102e95780637e664f20146103095780638164a96b146103295780638623e08a1461034957806388d9cbad14610369578063b688e4d61461037e578063c21ba47a146103ab578063c7fe1828146103d8578063cb105188146103eb578063cd4b691414610400578063ce544a4714610420578063e2842d7914610440578063e4c9e71d14610462578063efa7982114610482575b600080fd5b34801561014d57600080fd5b5061015661048a565b6040516101639190612d2a565b60405180910390f35b34801561017857600080fd5b50610181610515565b6040516101639190612a88565b34801561019a57600080fd5b506101a361067b565b005b3480156101b157600080fd5b506101c56101c036600461288f565b6106a8565b6040516101639190612b59565b3480156101de57600080fd5b506101a36101ed3660046127aa565b6107c6565b3480156101fe57600080fd5b5061015661020d3660046128a7565b61085a565b34801561021e57600080fd5b50610227610b52565b6040516101639190612ae8565b34801561024057600080fd5b506101a361024f366004612671565b610e6a565b34801561026057600080fd5b506101a361026f366004612631565b610f39565b34801561028057600080fd5b5061029461028f3660046125dd565b610ff2565b6040516101639190612d17565b3480156102ad57600080fd5b506101c56102bc3660046125dd565b61126e565b3480156102cd57600080fd5b506101a36113ea565b6101a36102e436600461282f565b611526565b3480156102f557600080fd5b506101a36103043660046125dd565b61170c565b34801561031557600080fd5b506101a36103243660046125dd565b61183a565b34801561033557600080fd5b506101a36103443660046125f9565b611886565b34801561035557600080fd5b506101a36103643660046127eb565b6118de565b34801561037557600080fd5b506101a3611984565b34801561038a57600080fd5b5061039e6103993660046125dd565b611b1d565b6040516101639190612b46565b3480156103b757600080fd5b506103cb6103c63660046128cb565b611b43565b6040516101639190612b3b565b6101a36103e636600461288f565b611e73565b3480156103f757600080fd5b506101a3611ef9565b34801561040c57600080fd5b5061015661041b36600461288f565b611f38565b34801561042c57600080fd5b506101a361043b3660046125dd565b612167565b34801561044c57600080fd5b506104556121b6565b6040516101639190612a47565b34801561046e57600080fd5b506101a361047d366004612671565b611522565b6101a3612218565b60006104946123e2565b600480546040805163248fc03b60e11b815290516001600160a01b039092169263491f8076928282019260209290829003018186803b1580156104d657600080fd5b505afa1580156104ea573d6000803e3d6000fd5b505050506040513d601f19601f8201168201806040525081019061050e9190612746565b5192915050565b60015460609081906001600160401b038111801561053257600080fd5b5060405190808252806020026020018201604052801561056657816020015b60608152602001906001900390816105515790505b5090506000805b6001548110156106735760606000806001848154811061058957fe5b60009182526020808320909101546001600160a01b031683528281019390935260409182019020600290810180548351601f600019600184161561010002019092169390930490810185900485028301850190935282825290929091908301828280156106375780601f1061060c57610100808354040283529160200191610637565b820191906000526020600020905b81548152906001019060200180831161061a57829003601f168201915b5050505050905061064781612316565b61066a578084848060010195508151811061065e57fe5b60200260200101819052505b5060010161056d565b509091505090565b60405133907fff0fe13e0269c44d6dace1b2824d15fcf7424a4709a5e86a0b1a74e1d28e2f0e90600090a2565b6060806106b3610515565b9050600081516106c98560018054905001611f38565b816106d057fe5b06905061078e8282815181106106e257fe5b6020908102919091018101513360009081528083526040908190206002908101805483516001821615610100026000190190911692909204601f81018690048602830186019093528282529293909291908301828280156107845780601f1061075957610100808354040283529160200191610784565b820191906000526020600020905b81548152906001019060200180831161076757829003601f168201915b505050505061231b565b156107a85761079f846001016106a8565b925050506107c1565b8181815181106107b457fe5b6020026020010151925050505b919050565b6107d1828483611b43565b6107f65760405162461bcd60e51b81526004016107ed90612ba1565b60405180910390fd5b6001600160a01b03811660009081526020819052604081209084600181111561081b57fe5b141561082c57600781018054840190555b600184600181111561083a57fe5b141561084b57600881018054840190555b61085482612167565b50505050565b6001600160a01b0381166000908152602081905260408120600b015460ff166108955760405162461bcd60e51b81526004016107ed90612ceb565b826108a257506000610b4c565b6108aa612400565b6001600160a01b038316600090815260208181526040918290208251815460026001821615610100026000190190911604601f810184900490930281016101c09081019094526101a081018381529093919284928491908401828280156109525780601f1061092757610100808354040283529160200191610952565b820191906000526020600020905b81548152906001019060200180831161093557829003601f168201915b50505091835250506001828101546001600160a01b0316602080840191909152600280850180546040805161010096831615969096026000190190911692909204601f810184900484028501840183528085529190940193918301828280156109fc5780601f106109d1576101008083540402835291602001916109fc565b820191906000526020600020905b8154815290600101906020018083116109df57829003601f168201915b505050918352505060038201805460408051602060026001851615610100026000190190941693909304601f8101849004840282018401909252818152938201939291830182828015610a905780601f10610a6557610100808354040283529160200191610a90565b820191906000526020600020905b815481529060010190602001808311610a7357829003601f168201915b50505091835250506004820154602082015260058083015460408301526006830154606083015260078301546080830152600883015460a0830152600983015460c0830152600a83015460e0830152600b83015460ff808216151561010080860191909152610120909401939091041690811115610b0a57fe5b6005811115610b1557fe5b90525061012081015160e082015160c083015160808401519394509101860191016000826064830281610b4457fe5b049450505050505b92915050565b60015460609081906001600160401b0381118015610b6f57600080fd5b50604051908082528060200260200182016040528015610ba957816020015b610b96612400565b815260200190600190039081610b8e5790505b50905060005b600154811015610e645760008060018381548110610bc957fe5b6000918252602080832091909101546001600160a01b0316835282810193909352604091820190208151815460026101006001831615026000190190911604601f810185900490940281016101c09081019093526101a081018481529093919284928491840182828015610c7e5780601f10610c5357610100808354040283529160200191610c7e565b820191906000526020600020905b815481529060010190602001808311610c6157829003601f168201915b50505091835250506001828101546001600160a01b0316602080840191909152600280850180546040805161010096831615969096026000190190911692909204601f81018490048402850184018352808552919094019391830182828015610d285780601f10610cfd57610100808354040283529160200191610d28565b820191906000526020600020905b815481529060010190602001808311610d0b57829003601f168201915b505050918352505060038201805460408051602060026001851615610100026000190190941693909304601f8101849004840282018401909252818152938201939291830182828015610dbc5780601f10610d9157610100808354040283529160200191610dbc565b820191906000526020600020905b815481529060010190602001808311610d9f57829003601f168201915b50505091835250506004820154602082015260058083015460408301526006830154606083015260078301546080830152600883015460a0830152600983015460c0830152600a83015460e0830152600b83015460ff808216151561010080860191909152610120909401939091041690811115610e3657fe5b6005811115610e4157fe5b81525050828281518110610e5157fe5b6020908102919091010152600101610baf565b50905090565b6005546001600160a01b03163314610e945760405162461bcd60e51b81526004016107ed90612b6c565b6001600160a01b03821660009081526020819052604090206002600b820154610100900460ff166005811115610ec657fe5b1480610ee957506003600b820154610100900460ff166005811115610ee757fe5b145b15610f0057600b8101805461ff0019166104001790555b6040516001600160a01b038416907f1c262d40ba85334c900d5a3889ab1dfe8a3f6f72ec4ba47cff5fbd2700eff4b090600090a2505050565b6005546001600160a01b03163314610f635760405162461bcd60e51b81526004016107ed90612b6c565b6001600160a01b03831660009081526020819052604090206004600b820154610100900460ff166005811115610f9557fe5b14610fb25760405162461bcd60e51b81526004016107ed90612c2a565b60088101805483900390556005810180546064607885020490819003909155600b8201805461ff001916610200179055610feb8561170c565b5050505050565b610ffa612400565b6001600160a01b038216600090815260208181526040918290208251815460026001821615610100026000190190911604601f810184900490930281016101c09081019094526101a081018381529093919284928491908401828280156110a25780601f10611077576101008083540402835291602001916110a2565b820191906000526020600020905b81548152906001019060200180831161108557829003601f168201915b50505091835250506001828101546001600160a01b0316602080840191909152600280850180546040805161010096831615969096026000190190911692909204601f8101849004840285018401835280855291909401939183018282801561114c5780601f106111215761010080835404028352916020019161114c565b820191906000526020600020905b81548152906001019060200180831161112f57829003601f168201915b505050918352505060038201805460408051602060026001851615610100026000190190941693909304601f81018490048402820184019092528181529382019392918301828280156111e05780601f106111b5576101008083540402835291602001916111e0565b820191906000526020600020905b8154815290600101906020018083116111c357829003601f168201915b50505091835250506004820154602082015260058083015460408301526006830154606083015260078301546080830152600883015460a0830152600983015460c0830152600a83015460e0830152600b83015460ff80821615156101008086019190915261012090940193909104169081111561125a57fe5b600581111561126557fe5b90525092915050565b604080518082018252601081526f181899199a1a9b1b9c1cb0b131b232b360811b60208201528151603380825260608281019094526001600160a01b03851692918491602082018180368337019050509050600360fc1b816000815181106112d257fe5b60200101906001600160f81b031916908160001a905350600f60fb1b816001815181106112fb57fe5b60200101906001600160f81b031916908160001a90535060005b60148110156113e1578260048583600c016020811061133057fe5b1a60f81b6001600160f81b031916901c60f81c60ff168151811061135057fe5b602001015160f81c60f81b82826002026002018151811061136d57fe5b60200101906001600160f81b031916908160001a905350828482600c016020811061139457fe5b825191901a600f169081106113a557fe5b602001015160f81c60f81b8282600202600301815181106113c257fe5b60200101906001600160f81b031916908160001a905350600101611315565b50949350505050565b60006113f461048a565b905060005b600154811015611522576103e8826000806001858154811061141757fe5b60009182526020808320909101546001600160a01b03168352820192909252604001902060050154028161144757fe5b046000806001848154811061145857fe5b9060005260206000200160009054906101000a90046001600160a01b03166001600160a01b03166001600160a01b03168152602001908152602001600020600601819055506103e882600080600185815481106114b157fe5b60009182526020808320909101546001600160a01b0316835282019290925260400190206008015402816114e157fe5b04600080600184815481106114f257fe5b60009182526020808320909101546001600160a01b031683528201929092526040019020600901556001016113f9565b5050565b336000908152602081905260409020600b015460ff16156115595760405162461bcd60e51b81526004016107ed90612c9a565b61156161247d565b6040518060400160405280848152602001838152509050611580612400565b61158982612374565b3360009081526020818152604090912082518051939450849391926115b392849290910190612497565b506020828101516001830180546001600160a01b0319166001600160a01b03909216919091179055604083015180516115f29260028501920190612497565b506060820151805161160e916003840191602090910190612497565b506080820151600482015560a082015160058083019190915560c0830151600683015560e083015160078301556101008084015160088401556101208401516009840155610140840151600a840155610160840151600b8401805460ff19169115159190911780825561018086015193919261ff001990911691849081111561169357fe5b02179055505060018054808201825560009182527fb10e2d527612073b26eecdfd717e6a320cf44b4afac2b0732d9fcbe2b7fa0cf60180546001600160a01b031916339081179091556040519092507fee605c472ae5e2494dd267b450aae4ce80215a3877ffba65c60c5863ccd0e1f69190a250505050565b6001600160a01b03811660009081526020819052604090206004600b820154610100900460ff16600581111561173e57fe5b141561174a5750611837565b61175333612167565b6009810154600782015460068301546004840154919092019101816117a2578061178557600b8301805461ff00191690555b801561179d57600b8301805461ff0019166101001790555b610854565b81156108545760008282606402816117b657fe5b04600a8501819055905081158015906117d05750607d8111155b156117e757600b8401805461ff0019166105001790555b6000821180156117f75750607d81115b1561180e57600b8401805461ff0019166103001790555b60008211801561181e5750609681115b15610feb57505050600b01805461ff0019166102001790555b50565b6002546001600160a01b031633146118645760405162461bcd60e51b81526004016107ed90612cc7565b600580546001600160a01b0319166001600160a01b0392909216919091179055565b6002546001600160a01b031633146118b05760405162461bcd60e51b81526004016107ed90612cc7565b600380546001600160a01b039384166001600160a01b03199182161790915560048054929093169116179055565b6001600160a01b0381166000908152602081905260409020600b015460ff16151560011461191e5760405162461bcd60e51b81526004016107ed90612c6d565b6001600160a01b038116600090815260208181526040909120835161194b92600290920191850190612497565b506040516001600160a01b038216907f6129920dbf7832c97ea521fa1d2b5f803312651ff35da6fa7a1dd677645f3fde90600090a25050565b336000908152602081905260409020600b015460ff1615156001146119bb5760405162461bcd60e51b81526004016107ed90612c02565b3360009081526020819052604081206004810154600582015490929091906119e38282612515565b6001820180546001600160a01b0319169055611a03600283016000612515565b611a11600383016000612515565b506000600482018190556005820181905560068201819055600782018190556008820181905560098201819055600a8201819055600b909101805461ffff191690555b600154811015611abf57336001600160a01b031660018281548110611a7557fe5b6000918252602090912001546001600160a01b03161415611ab75760018181548110611a9d57fe5b600091825260209091200180546001600160a01b03191690555b600101611a54565b50604051339083156108fc029084906000818181858888f19350505050158015611aed573d6000803e3d6000fd5b5060405133907f3d46ee4620cef01638dea871498a943bc628762955c88aeb39cf0c67221bc98590600090a25050565b6001600160a01b03166000908152602081905260409020600b0154610100900460ff1690565b6001600160a01b0381166000908152602081905260408120600b015460ff16611b7e5760405162461bcd60e51b81526004016107ed90612ceb565b83611b8b57506001611e6c565b611b93612400565b6001600160a01b038316600090815260208181526040918290208251815460026001821615610100026000190190911604601f810184900490930281016101c09081019094526101a08101838152909391928492849190840182828015611c3b5780601f10611c1057610100808354040283529160200191611c3b565b820191906000526020600020905b815481529060010190602001808311611c1e57829003601f168201915b50505091835250506001828101546001600160a01b0316602080840191909152600280850180546040805161010096831615969096026000190190911692909204601f81018490048402850184018352808552919094019391830182828015611ce55780601f10611cba57610100808354040283529160200191611ce5565b820191906000526020600020905b815481529060010190602001808311611cc857829003601f168201915b505050918352505060038201805460408051602060026001851615610100026000190190941693909304601f8101849004840282018401909252818152938201939291830182828015611d795780601f10611d4e57610100808354040283529160200191611d79565b820191906000526020600020905b815481529060010190602001808311611d5c57829003601f168201915b50505091835250506004820154602082015260058083015460408301526006830154606083015260078301546080830152600883015460a0830152600983015460c0830152600a83015460e0830152600b83015460ff808216151561010080860191909152610120909401939091041690811115611df357fe5b6005811115611dfe57fe5b90525090506000611e0d61048a565b9050600080866001811115611e1e57fe5b14611e2f576103e887830204611e31565b865b61012084015160e085015160c086015160808701519394509101830191016000826064830281611e5d57fe5b60969190041196505050505050505b9392505050565b336000908152602081905260409020600b015460ff161515600114611eaa5760405162461bcd60e51b81526004016107ed90612c02565b336000818152602081905260409020600501805483019055611ecb9061170c565b60405133907f33a3e4e0a19db85e59fadacac29cdcbcf8429f4b13a59ca788eeaf536139554f90600090a250565b60005b60015481101561183757611f3060018281548110611f1657fe5b6000918252602090912001546001600160a01b031661170c565b600101611efc565b6004805460408051632043285d60e01b815290516000936060936001600160a01b031692632043285d92818301928792829003018186803b158015611f7c57600080fd5b505afa158015611f90573d6000803e3d6000fd5b505050506040513d6000823e601f3d908101601f19168201604052611fb8919081019061269c565b90506060600360009054906101000a90046001600160a01b03166001600160a01b0316632043285d6040518163ffffffff1660e01b815260040160006040518083038186803b15801561200a57600080fd5b505afa15801561201e573d6000803e3d6000fd5b505050506040513d6000823e601f3d908101601f19168201604052612046919081019061269c565b905060004285600160008154811061205a57fe5b60009182526020918290200154604051612085946001600160a01b0390921693909318189101612d2a565b6040516020818303038152906040528051906020012060001c905060005b8351811015612103574286856000815181106120bb57fe5b60200260200101516001600160a01b031618186040516020016120de9190612d2a565b60408051601f19818403018152919052805160209091012091909118906001016120a3565b5060005b82518110156113e15742868460008151811061211f57fe5b60200260200101516001600160a01b031618186040516020016121429190612d2a565b60408051601f1981840301815291905280516020909101209190911890600101612107565b600061217161048a565b6001600160a01b0392909216600090815260208190526040902060058101546103e8908402819004600683015560088201549093029290920460099092019190915550565b6060600180548060200260200160405190810160405280929190818152602001828054801561220e57602002820191906000526020600020905b81546001600160a01b031681526001909101906020018083116121f0575b5050505050905090565b336000908152602081905260409020600b015460ff16151560011461224f5760405162461bcd60e51b81526004016107ed90612c02565b3360008181526020819052604090206004018054340190556122709061170c565b6001336000908152602081905260409020600b0154610100900460ff16600581111561229857fe5b141580156122cc57506002336000908152602081905260409020600b0154610100900460ff1660058111156122c957fe5b14155b156122e95760405162461bcd60e51b81526004016107ed90612bd3565b60405133907f436701180445bbad36aac9e5f14b485ba5bec99374d3e3925199596dbd8d703690600090a2565b511590565b60008160405160200161232e9190612a2b565b60405160208183030381529060405280519060200120836040516020016123559190612a2b565b6040516020818303038152906040528051906020012014905092915050565b61237c612400565b612384612400565b82518152336020808301919091528301516060820152346080820152600060a0820181905260c0820181905260e082018190526101008201819052610120820181905261014082018190526001610160830152610180820181611265565b60405180602001604052806001906020820280368337509192915050565b604051806101a001604052806060815260200160006001600160a01b031681526020016060815260200160608152602001600081526020016000815260200160008152602001600081526020016000815260200160008152602001600081526020016000151581526020016000600581111561247857fe5b905290565b604051806040016040528060608152602001606081525090565b828054600181600116156101000203166002900490600052602060002090601f016020900481019282601f106124d857805160ff1916838001178555612505565b82800160010185558215612505579182015b828111156125055782518255916020019190600101906124ea565b50612511929150612555565b5090565b50805460018160011615610100020316600290046000825580601f1061253b5750611837565b601f01602090049060005260206000209081019061183791905b5b808211156125115760008155600101612556565b8051610b4c81612d8f565b600082601f830112612585578081fd5b81356001600160401b0381111561259a578182fd5b6125ad601f8201601f1916602001612d33565b91508082528360208285010111156125c457600080fd5b8060208401602084013760009082016020015292915050565b6000602082840312156125ee578081fd5b8135611e6c81612d8f565b6000806040838503121561260b578081fd5b823561261681612d8f565b9150602083013561262681612d8f565b809150509250929050565b600080600060608486031215612645578081fd5b833561265081612d8f565b9250602084013561266081612d8f565b929592945050506040919091013590565b60008060408385031215612683578182fd5b823561268e81612d8f565b946020939093013593505050565b600060208083850312156126ae578182fd5b82516001600160401b03808211156126c4578384fd5b818501915085601f8301126126d7578384fd5b8151818111156126e5578485fd5b83810291506126f5848301612d33565b8181528481019084860184860187018a101561270f578788fd5b8795505b83861015612739576127258a8261256a565b835260019590950194918601918601612713565b5098975050505050505050565b60006020808385031215612758578182fd5b83601f840112612766578182fd5b61276f81612d33565b808486848701111561277f578485fd5b845b600181101561279e57815184529284019290840190600101612781565b50909695505050505050565b6000806000606084860312156127be578283fd5b83356127c981612da4565b92506020840135915060408401356127e081612d8f565b809150509250925092565b600080604083850312156127fd578182fd5b82356001600160401b03811115612812578283fd5b61281e85828601612575565b925050602083013561262681612d8f565b60008060408385031215612841578182fd5b82356001600160401b0380821115612857578384fd5b61286386838701612575565b93506020850135915080821115612878578283fd5b5061288585828601612575565b9150509250929050565b6000602082840312156128a0578081fd5b5035919050565b600080604083850312156128b9578182fd5b82359150602083013561262681612d8f565b6000806000606084860312156128df578283fd5b8335925060208401356128f181612da4565b915060408401356127e081612d8f565b6001600160a01b03169052565b15159052565b61291d81612d85565b9052565b60008151808452612939816020860160208601612d59565b601f01601f19169290920160200192915050565b60006101a0825181855261296382860182612921565b91505060208301516129786020860182612901565b50604083015184820360408601526129908282612921565b915050606083015184820360608601526129aa8282612921565b9150506080830151608085015260a083015160a085015260c083015160c085015260e083015160e085015261010080840151818601525061012080840151818601525061014080840151818601525061016080840151612a0c8287018261290e565b505061018080840151612a2182870182612914565b5090949350505050565b60008251612a3d818460208701612d59565b9190910192915050565b6020808252825182820181905260009190848201906040850190845b8181101561279e5783516001600160a01b031683529284019291840191600101612a63565b6000602080830181845280855180835260408601915060408482028701019250838701855b82811015612adb57603f19888603018452612ac9858351612921565b94509285019290850190600101612aad565b5092979650505050505050565b6000602080830181845280855180835260408601915060408482028701019250838701855b82811015612adb57603f19888603018452612b2985835161294d565b94509285019290850190600101612b0d565b901515815260200190565b60208101612b5383612d85565b91905290565b600060208252611e6c6020830184612921565b6020808252601b908201527a1bdb9b1e48131bd85b8818dbdb9d1c9858dd0818d85b8818d85b1b602a1b604082015260600190565b602080825260189082015277141b19585cd9481d5c1cda5e994818dbdb1b185d195c985b60421b604082015260600190565b602080825260159082015274086ded8d8c2e8cae4c2d840dcdee840cadcdeeaced605b1b604082015260600190565b6020808252600e908201526d1d5cd95c881b9bdd08199bdd5b9960921b604082015260600190565b60208082526023908201527f657870656374696e67205041525449414c5f4c49515549444154494f4e20737460408201526261746560e81b606082015260800190565b60208082526013908201527214995c5d595cdd195c881b9bdd08199bdd5b99606a1b604082015260600190565b6020808252601390820152727573657220616c72656164792065786973747360681b604082015260600190565b6020808252600a908201526937b7363c9037bbb732b960b11b604082015260600190565b6020808252601290820152711b9bdd081c9959da5cdd195c9959081e595d60721b604082015260600190565b600060208252611e6c602083018461294d565b90815260200190565b6040518181016001600160401b0381118282101715612d5157600080fd5b604052919050565b60005b83811015612d74578181015183820152602001612d5c565b838111156108545750506000910152565b6006811061183757fe5b6001600160a01b038116811461183757600080fd5b6002811061183757600080fdfea2646970667358221220e9cd3984492c0012b9a50a15ec1e8d300a66fff953533cdb993bc63344ea3faa64736f6c634300060c0033",
  "immutableReferences": {},
  "source": "// SPDX-License-Identifier: MIT\npragma solidity ^0.6.12;\npragma experimental ABIEncoderV2;\n\nimport './Market.sol';\nimport './Loan.sol';\n\ncontract Collateral {\n    event SetColBook(address indexed sender);\n    event UpSizeETH(address indexed sender);\n    event UpSizeFIL(address indexed sender);\n    event DelColBook(address indexed sender);\n    event PartialLiquidation(address indexed addr);\n    event RequestFILCustodyAddr(address indexed sender);\n    event RegisterFILCustodyAddr(address indexed requester);\n    event DEBUG(address addr);\n\n    enum CcyPair {FILETH}\n    enum State {\n        EMPTY,\n        AVAILABLE,\n        IN_USE,\n        MARGIN_CALL,\n        PARTIAL_LIQUIDATION,\n        LIQUIDATION\n    }\n\n    uint256 constant PCT = 100;\n    uint256 constant FXMULT = 1000;\n    uint256 constant LQLEVEL = 120; // 120% for liquidation price\n    uint256 constant MARGINLEVEL = 150; // 150% margin call threshold\n    uint256 constant AUTOLQLEVEL = 125; // 125% auto liquidation\n\n    struct ColBook {\n        string id; // DID, email\n        address addrETH;\n        string addrFIL; // custody\n        string userAddrFIL;\n        uint256 amtETH; // custody amount\n        uint256 amtFIL; // custody amount\n        uint256 amtFILValue; // custody FIL amt evaluated in ETH\n        uint256 inuseETH; // total PV of ETH loans\n        uint256 inuseFIL; // total PV of FIL loans\n        uint256 inuseFILValue; // total PV of FIL loans\n        uint256 coverage; // in PCT\n        bool isAvailable;\n        State state;\n    }\n\n    struct ColInput {\n        string id; // DID, email\n        string userAddrFIL;\n    }\n\n    // keeps all the records\n    mapping(address => ColBook) private colMap;\n    address[] private users;\n    address private owner;\n\n    // Contracts\n    MoneyMarket moneyMarket;\n    FXMarket fxMarket;\n    Loan loan;\n\n    constructor(address moneyAddr, address fxAddr) public {\n        owner = msg.sender;\n        moneyMarket = MoneyMarket(moneyAddr);\n        fxMarket = FXMarket(fxAddr);\n    }\n\n    // reset market contracts to interact if needed\n    function setMarketAddr(address moneyAddr, address fxAddr) public {\n        require(msg.sender == owner, 'only owner');\n        moneyMarket = MoneyMarket(moneyAddr);\n        fxMarket = FXMarket(fxAddr);\n    }\n\n    // called after Loan contract is deployed\n    function setLoanAddr(address loanAddr) public {\n        require(msg.sender == owner, 'only owner');\n        loan = Loan(loanAddr);\n    }\n\n    /**@dev\n        Register a user and make a collateral book\n     */\n\n    // register an user\n    function setColBook(string memory id, string memory userAddrFIL)\n        public\n        payable\n    {\n        require(!colMap[msg.sender].isAvailable, 'user already exists'); // one-time\n        ColInput memory input = ColInput(id, userAddrFIL);\n        ColBook memory newBook = inputToBook(input);\n        colMap[msg.sender] = newBook;\n        users.push(msg.sender);\n        emit SetColBook(msg.sender);\n    }\n\n    // helper to convert input data to ColBook\n    function inputToBook(ColInput memory input)\n        private\n        view\n        returns (ColBook memory)\n    {\n        ColBook memory book;\n        book.id = input.id;\n        book.addrETH = msg.sender;\n        book.addrFIL; // blank until FIL custody address requested\n        book.userAddrFIL = input.userAddrFIL;\n        book.amtETH = msg.value;\n        book.amtFIL = 0; // TODO - P2P oracle will update\n        book.amtFILValue = 0;\n        book.inuseETH = 0; // updated by ETH loan\n        book.inuseFIL = 0; // updated by FIL loan\n        book.inuseFILValue = 0;\n        book.coverage = 0;\n        book.isAvailable = true;\n        book.state = State.EMPTY;\n        // book.state = msg.value > 0 ? State.AVAILABLE : State.EMPTY;\n        return book;\n    }\n\n    // helper to make loan deal to check coverage and update ColBook\n    function useCollateral(\n        MoneyMarket.Ccy ccy,\n        uint256 amt,\n        address addr\n    ) public {\n        require(isCovered(amt, ccy, addr), 'Please upsize collateral');\n        ColBook storage book = colMap[addr];\n        if (ccy == MoneyMarket.Ccy.ETH) book.inuseETH += amt;\n        if (ccy == MoneyMarket.Ccy.FIL) book.inuseFIL += amt;\n        updateFILValue(addr);\n    }\n\n    // helper to check collateral coverage\n    function isCovered(\n        uint256 amt,\n        MoneyMarket.Ccy ccy, // ETH or FIL\n        address addr\n    ) public view returns (bool) {\n        require(colMap[addr].isAvailable, 'not registered yet');\n        if (amt == 0) return true;\n        ColBook memory book = colMap[addr];\n        uint256 FILETH = getFILETH();\n        uint256 toBeUsed = ccy == MoneyMarket.Ccy.ETH\n            ? amt\n            : (amt * FILETH) / FXMULT;\n        uint256 totalUse = book.inuseETH + book.inuseFILValue + toBeUsed;\n        uint256 totalAmt = book.amtETH + book.amtFILValue;\n        uint256 coverage = (PCT * totalAmt) / totalUse;\n        return coverage > MARGINLEVEL;\n    }\n\n    // helper to calc coverage in PCT\n    function getCoverage(uint256 amt, address addr)\n        public\n        view\n        returns (uint256)\n    {\n        require(colMap[addr].isAvailable, 'not registered yet');\n        if (amt == 0) return 0;\n        ColBook memory book = colMap[addr];\n        uint256 totalUse = book.inuseETH + book.inuseFILValue + amt;\n        uint256 totalAmt = book.amtETH + book.amtFILValue;\n        uint256 coverage = (PCT * totalAmt) / totalUse;\n        return coverage;\n    }\n\n    /**@dev\n        State Management Section\n        1. update states\n        2. notify - confirm method to change states\n\n        // TODO - modify inuseETH after loan is executed\n        // TODO - update loan mtm condition and change state\n     */\n\n    // DEBUG\n    function addressToString(address _addr) public pure returns (string memory) {\n        bytes32 value = bytes32(uint256(_addr));\n        bytes memory alphabet = '0123456789abcdef';\n\n        bytes memory str = new bytes(51);\n        str[0] = '0';\n        str[1] = 'x';\n        for (uint256 i = 0; i < 20; i++) {\n            str[2 + i * 2] = alphabet[uint256(uint8(value[i + 12] >> 4))];\n            str[3 + i * 2] = alphabet[uint256(uint8(value[i + 12] & 0x0f))];\n        }\n        return string(str);\n    }\n\n    // update state and coverage\n    function updateState(address addr) public {\n        ColBook storage book = colMap[addr];\n        if (book.state == State.PARTIAL_LIQUIDATION) return;\n        updateFILValue(msg.sender);\n        uint256 totalUse = book.inuseETH + book.inuseFILValue;\n        uint256 totalAmt = book.amtETH + book.amtFILValue;\n        if (totalUse == 0) {\n            if (totalAmt == 0) book.state = State.EMPTY;\n            if (totalAmt > 0) book.state = State.AVAILABLE;\n        } else if (totalUse > 0) {\n            uint256 coverage = (PCT * totalAmt) / totalUse;\n            book.coverage = coverage;\n            if (totalAmt > 0 && coverage <= AUTOLQLEVEL)\n                book.state = State.LIQUIDATION;\n            if (totalAmt > 0 && coverage > AUTOLQLEVEL)\n                book.state = State.MARGIN_CALL;\n            if (totalAmt > 0 && coverage > MARGINLEVEL)\n                book.state = State.IN_USE;\n        }\n    }\n\n    // update state all\n    function updateAllState() public {\n        for (uint256 i = 0; i < users.length; i++) {\n            updateState(users[i]);\n        }\n    }\n\n    // to be called from Loan for coupon cover up\n    // TODO - handle ETH lending case\n    function partialLiquidation(address borrower, uint256 amount) public {\n        require(msg.sender == address(loan), 'only Loan contract can call');\n        ColBook storage book = colMap[borrower];\n        if (book.state == State.IN_USE || book.state == State.MARGIN_CALL) {\n            book.state = State.PARTIAL_LIQUIDATION;\n        }\n        // TODO - nominate liquidation provider, calc payment amount\n        emit PartialLiquidation(borrower);\n    }\n\n    // TODO\n    function liquiadtion(address borrower, uint256 amount) public {}\n\n    // to be called from Loan to pay liquidation provider\n    function recoverPartialLiquidation(\n        address borrower,\n        address liquidProvider,\n        uint256 amount\n    ) public {\n        require(msg.sender == address(loan), 'only Loan contract can call');\n        ColBook storage book = colMap[borrower];\n        require(\n            book.state == State.PARTIAL_LIQUIDATION,\n            'expecting PARTIAL_LIQUIDATION state'\n        );\n        uint256 recoverAmount = (amount * LQLEVEL) / PCT;\n        // TODO - handle ETH lending case\n        book.inuseFIL -= amount;\n        book.amtFIL -= recoverAmount;\n        book.state = State.IN_USE;\n        updateState(borrower);\n    }\n\n    // function confirmFILPayment(address addr) public {\n    //     // TODO - only called by Lender (maybe move to Loan)\n    //     ColBook storage book = colMap[addr];\n    //     if (book.state == State.PARTIAL_LIQUIDATION) {\n    //         book.state = State.IN_USE;\n    //         // TODO - release Collateral\n    //     }\n    //     updateState(addr);\n    // }\n\n    // collateralize ETH\n    function upSizeETH() public payable {\n        require(colMap[msg.sender].isAvailable == true, 'user not found');\n        colMap[msg.sender].amtETH += msg.value;\n        updateState(msg.sender);\n        if (\n            (colMap[msg.sender].state != State.AVAILABLE) &&\n            (colMap[msg.sender].state != State.IN_USE)\n        ) revert('Collateral not enough');\n        emit UpSizeETH(msg.sender);\n    }\n\n    // collateralize FIL\n    function upSizeFIL(uint256 amtFIL) public payable {\n        require(colMap[msg.sender].isAvailable == true, 'user not found');\n        colMap[msg.sender].amtFIL += amtFIL;\n        // TODO - check FIL network by other peers to verify amtFIL\n        updateState(msg.sender);\n        emit UpSizeFIL(msg.sender);\n    }\n\n    // to be called from market maker\n    function delColBook() public {\n        require(colMap[msg.sender].isAvailable == true, 'user not found');\n        uint256 amtETH = colMap[msg.sender].amtETH;\n        uint256 amtFIL = colMap[msg.sender].amtFIL;\n        delete colMap[msg.sender]; // avoid reentrancy\n        for (uint256 i = 0; i < users.length; i++) {\n            if (users[i] == msg.sender) delete users[i];\n        } // users.length no change\n        msg.sender.transfer(amtETH);\n        amtFIL; // TODO - return FIL\n        emit DelColBook(msg.sender);\n    }\n\n    function getOneBook(address addr) public view returns (ColBook memory) {\n        return colMap[addr];\n    }\n\n    function getAllBooks() public view returns (ColBook[] memory) {\n        ColBook[] memory allBooks = new ColBook[](users.length);\n        for (uint256 i = 0; i < users.length; i++) {\n            allBooks[i] = colMap[users[i]];\n        }\n        return allBooks;\n    }\n\n    function getAllUsers() public view returns (address[] memory) {\n        return users;\n    }\n\n    function getColState(address addr) public view returns (State) {\n        return colMap[addr].state;\n    }\n\n    /**dev\n        Update FIL Value in ETH Section\n        1. get the latest FILETH currency rate from fxMarket\n        2. apply FILETH rate to amtFIL and inuseFIL\n        3. update amtFILValue and inuseFILValue as ETH value\n     */\n\n    // helper to get fx mid rate for valuation\n    function getFILETH() public view returns (uint256) {\n        uint256[1] memory rates = fxMarket.getMidRates();\n        return rates[uint256(CcyPair.FILETH)];\n    }\n\n    // update for one user\n    function updateFILValue(address addr) public {\n        uint256 fxRate = getFILETH();\n        colMap[addr].amtFILValue = (colMap[addr].amtFIL * fxRate) / FXMULT;\n        colMap[addr].inuseFILValue = (colMap[addr].inuseFIL * fxRate) / FXMULT;\n    }\n\n    // to be called relularly\n    function updateAllFILValue() public {\n        uint256 fxRate = getFILETH();\n        for (uint256 i = 0; i < users.length; i++) {\n            colMap[users[i]].amtFILValue =\n                (colMap[users[i]].amtFIL * fxRate) /\n                FXMULT;\n            colMap[users[i]].inuseFILValue =\n                (colMap[users[i]].inuseFIL * fxRate) /\n                FXMULT;\n        }\n    }\n\n    /**@dev\n        FIL Custody Address Section\n        1. emit message to request FIL custody address\n        2. register FIL custody address for the requester\n        3. random number can be generated from our market oracle\n        4. pick random FIL custody address and let others to input its balance\n        5. random verification updates FIL custody balance decentralized way\n        6. this is used when market makers want to set their bit/offer quote\n     */\n\n    // to be called by market makers\n    function requestFILCustodyAddr() public {\n        emit RequestFILCustodyAddr(msg.sender);\n    }\n\n    // to be called by whitelisted scheduler\n    function registerFILCustodyAddr(string memory addrFIL, address requester)\n        public\n    {\n        require(colMap[requester].isAvailable == true, 'Requester not found');\n        colMap[requester].addrFIL = addrFIL;\n        emit RegisterFILCustodyAddr(requester);\n    }\n\n    // helper to check empty string\n    function isEmptyStr(string memory str) private pure returns (bool) {\n        bytes memory byteStr = bytes(str);\n        return byteStr.length == 0;\n    }\n\n    function getAllFILCustodyAddr() public view returns (string[] memory) {\n        string[] memory addrList = new string[](users.length);\n        uint256 j = 0;\n        for (uint256 i = 0; i < users.length; i++) {\n            string memory addrFIL = colMap[users[i]].addrFIL;\n            if (!isEmptyStr(addrFIL)) addrList[j++] = addrFIL;\n        }\n        return addrList;\n    }\n\n    // helper to generate random using market oracle\n    function getRandom(uint256 seed) public view returns (uint256) {\n        address[] memory fxMakers = fxMarket.getMarketMakers();\n        address[] memory loanMakers = moneyMarket.getMarketMakers();\n        uint256 rand = uint256(\n            keccak256(abi.encode(uint256(users[0]) ^ seed ^ now))\n        );\n        for (uint256 i = 0; i < fxMakers.length; i++) {\n            rand ^= uint256(\n                keccak256(abi.encode(uint256(fxMakers[0]) ^ seed ^ now))\n            );\n        }\n        for (uint256 i = 0; i < loanMakers.length; i++) {\n            rand ^= uint256(\n                keccak256(abi.encode(uint256(loanMakers[0]) ^ seed ^ now))\n            );\n        }\n        return rand;\n    }\n\n    // helper to check string equality\n    function isEqualStr(string memory a, string memory b)\n        private\n        pure\n        returns (bool)\n    {\n        return (keccak256(abi.encodePacked(a)) ==\n            keccak256(abi.encodePacked(b)));\n    }\n\n    // to be called by market makers\n    // ramdomly pick a FILCustoryAddr to verify FIL balance for others\n    function getRandFILCustodyAddr(uint256 seed)\n        public\n        view\n        returns (string memory)\n    {\n        string[] memory addrList = getAllFILCustodyAddr();\n        uint256 rand = getRandom(users.length + seed) % addrList.length;\n        if (isEqualStr(addrList[rand], colMap[msg.sender].addrFIL))\n            return getRandFILCustodyAddr(seed + 1); // avoid verify balance myself\n        return addrList[rand];\n    }\n}\n",
  "sourcePath": "/home/bahti/Desktop/ourprojects/Secured-Finance-app/contracts/Collateral.sol",
  "compiler": {
    "name": "solc",
    "version": "0.6.12+commit.27d51765.Emscripten.clang"
  },
  "schemaVersion": "3.2.5",
  "updatedAt": "2020-10-21T15:46:58.174Z",
  "networkType": "ethereum",
  "devdoc": {
    "kind": "dev",
    "methods": {
      "addressToString(address)": {
        "details": "State Management Section 1. update states 2. notify - confirm method to change states // TODO - modify inuseETH after loan is executed // TODO - update loan mtm condition and change state"
      },
      "requestFILCustodyAddr()": {
        "details": "FIL Custody Address Section 1. emit message to request FIL custody address 2. register FIL custody address for the requester 3. random number can be generated from our market oracle 4. pick random FIL custody address and let others to input its balance 5. random verification updates FIL custody balance decentralized way 6. this is used when market makers want to set their bit/offer quote"
      },
      "setColBook(string,string)": {
        "details": "Register a user and make a collateral book"
      }
    },
    "version": 1
  },
  "userdoc": {
    "kind": "user",
    "methods": {
      "getFILETH()": {
        "notice": "dev Update FIL Value in ETH Section 1. get the latest FILETH currency rate from fxMarket 2. apply FILETH rate to amtFIL and inuseFIL 3. update amtFILValue and inuseFILValue as ETH value"
      }
    },
    "version": 1
  }
}