{
  "contractName": "Collateral",
  "abi": [
    {
      "anonymous": false,
      "inputs": [
        {
          "indexed": true,
          "internalType": "address",
          "name": "sender",
          "type": "address"
        }
      ],
      "name": "Registration",
      "type": "event"
    },
    {
      "inputs": [
        {
          "internalType": "address",
          "name": "moneyAddr",
          "type": "address"
        },
        {
          "internalType": "address",
          "name": "fxAddr",
          "type": "address"
        }
      ],
      "name": "setMarketAddr",
      "outputs": [],
      "stateMutability": "nonpayable",
      "type": "function"
    },
    {
      "inputs": [
        {
          "internalType": "string",
          "name": "id",
          "type": "string"
        },
        {
          "internalType": "string",
          "name": "addrFIL",
          "type": "string"
        }
      ],
      "name": "setUser",
      "outputs": [],
      "stateMutability": "nonpayable",
      "type": "function"
    },
    {
      "inputs": [
        {
          "internalType": "address",
          "name": "addr",
          "type": "address"
        }
      ],
      "name": "getOneUser",
      "outputs": [
        {
          "components": [
            {
              "internalType": "string",
              "name": "id",
              "type": "string"
            },
            {
              "internalType": "address",
              "name": "addrETH",
              "type": "address"
            },
            {
              "internalType": "string",
              "name": "addrFIL",
              "type": "string"
            },
            {
              "internalType": "uint256",
              "name": "amtETH",
              "type": "uint256"
            },
            {
              "internalType": "uint256",
              "name": "amtFIL",
              "type": "uint256"
            },
            {
              "internalType": "uint256",
              "name": "valueFIL",
              "type": "uint256"
            },
            {
              "internalType": "bool",
              "name": "isAvailable",
              "type": "bool"
            },
            {
              "internalType": "enum Collateral.State",
              "name": "state",
              "type": "uint8"
            }
          ],
          "internalType": "struct Collateral.UserItem",
          "name": "",
          "type": "tuple"
        }
      ],
      "stateMutability": "view",
      "type": "function"
    },
    {
      "inputs": [],
      "name": "getAllUsers",
      "outputs": [
        {
          "internalType": "address[]",
          "name": "",
          "type": "address[]"
        }
      ],
      "stateMutability": "view",
      "type": "function"
    },
    {
      "inputs": [],
      "name": "getAllUserItems",
      "outputs": [
        {
          "components": [
            {
              "internalType": "string",
              "name": "id",
              "type": "string"
            },
            {
              "internalType": "address",
              "name": "addrETH",
              "type": "address"
            },
            {
              "internalType": "string",
              "name": "addrFIL",
              "type": "string"
            },
            {
              "internalType": "uint256",
              "name": "amtETH",
              "type": "uint256"
            },
            {
              "internalType": "uint256",
              "name": "amtFIL",
              "type": "uint256"
            },
            {
              "internalType": "uint256",
              "name": "valueFIL",
              "type": "uint256"
            },
            {
              "internalType": "bool",
              "name": "isAvailable",
              "type": "bool"
            },
            {
              "internalType": "enum Collateral.State",
              "name": "state",
              "type": "uint8"
            }
          ],
          "internalType": "struct Collateral.UserItem[]",
          "name": "",
          "type": "tuple[]"
        }
      ],
      "stateMutability": "view",
      "type": "function"
    },
    {
      "inputs": [
        {
          "internalType": "uint256",
          "name": "amt",
          "type": "uint256"
        },
        {
          "internalType": "address",
          "name": "addr",
          "type": "address"
        }
      ],
      "name": "getCoverageALL",
      "outputs": [
        {
          "internalType": "uint256",
          "name": "",
          "type": "uint256"
        }
      ],
      "stateMutability": "view",
      "type": "function"
    },
    {
      "inputs": [],
      "name": "updateValueFIL",
      "outputs": [],
      "stateMutability": "nonpayable",
      "type": "function"
    },
    {
      "inputs": [],
      "name": "getFILETH",
      "outputs": [
        {
          "internalType": "uint256",
          "name": "",
          "type": "uint256"
        }
      ],
      "stateMutability": "view",
      "type": "function"
    }
  ],
  "bytecode": "0x608060405234801561001057600080fd5b50610dd4806100206000396000f3fe608060405234801561001057600080fd5b50600436106100785760003560e01c806314fb2fb11461007d5780632920e0221461009b5780635728b973146100b057806361e64315146100c55780638164a96b146100e5578063900e70f9146100f8578063c93638db1461010b578063e2842d7914610113575b600080fd5b610085610128565b6040516100929190610d6f565b60405180910390f35b6100a36101bf565b6040516100929190610cfc565b6100c36100be366004610b56565b610416565b005b6100d86100d3366004610a9c565b610581565b6040516100929190610d5c565b6100c36100f3366004610abe565b61073c565b610085610106366004610bb6565b61076a565b6100c36107a3565b61011b610845565b6040516100929190610cbb565b60006101326108f8565b600360009054906101000a90046001600160a01b03166001600160a01b031663491f80766040518163ffffffff1660e01b815260040160206040518083038186803b15801561018057600080fd5b505afa158015610194573d6000803e3d6000fd5b505050506040513d601f19601f820116820180604052508101906101b89190610af2565b5192915050565b60015460609081906001600160401b03811180156101dc57600080fd5b5060405190808252806020026020018201604052801561021657816020015b610203610916565b8152602001906001900390816101fb5790505b50905060005b600154811015610410576000806001838154811061023657fe5b6000918252602080832091909101546001600160a01b031683528281019390935260409182019020815181546002610100600183161581026000190190921604601f81018690049095028201610120908101909452810184815290939192849284918401828280156102e95780601f106102be576101008083540402835291602001916102e9565b820191906000526020600020905b8154815290600101906020018083116102cc57829003601f168201915b50505091835250506001828101546001600160a01b0316602080840191909152600280850180546040805161010096831615969096026000190190911692909204601f810184900484028501840183528085529190940193918301828280156103935780601f1061036857610100808354040283529160200191610393565b820191906000526020600020905b81548152906001019060200180831161037657829003601f168201915b505050918352505060038201546020820152600480830154604083015260058301546060830152600683015460ff8082161515608085015260a09093019261010090910416908111156103e257fe5b60048111156103ed57fe5b815250508282815181106103fd57fe5b602090810291909101015260010161021c565b50905090565b61041e610970565b604051806040016040528084815260200183815250905061043d610916565b610446826108a7565b3360009081526020818152604090912082518051939450849391926104709284929091019061098a565b506020828101516001830180546001600160a01b0319166001600160a01b03909216919091179055604083015180516104af926002850192019061098a565b5060608201516003820155608082015160048083019190915560a0830151600583015560c083015160068301805460ff19169115159190911780825560e08501519261ff00199091169061010090849081111561050857fe5b02179055505060018054808201825560009182527fb10e2d527612073b26eecdfd717e6a320cf44b4afac2b0732d9fcbe2b7fa0cf60180546001600160a01b031916339081179091556040519092507f478f5152d8fc568db3f8de9fb402fd9d98a1a7541ecfe434e59cf574fbfc55249190a250505050565b610589610916565b6001600160a01b03821660009081526020818152604091829020825181546002610100600183161581026000190190921604601f81018590049094028201610120908101909552810183815290939192849284919084018282801561062f5780601f106106045761010080835404028352916020019161062f565b820191906000526020600020905b81548152906001019060200180831161061257829003601f168201915b50505091835250506001828101546001600160a01b0316602080840191909152600280850180546040805161010096831615969096026000190190911692909204601f810184900484028501840183528085529190940193918301828280156106d95780601f106106ae576101008083540402835291602001916106d9565b820191906000526020600020905b8154815290600101906020018083116106bc57829003601f168201915b505050918352505060038201546020820152600480830154604083015260058301546060830152600683015460ff8082161515608085015260a090930192610100909104169081111561072857fe5b600481111561073357fe5b90525092915050565b600280546001600160a01b039384166001600160a01b03199182161790915560038054929093169116179055565b6001600160a01b0381166000908152602081905260408120600581015460039091015401606484028161079957fe5b0490505b92915050565b60006107ad610128565b905060005b600154811015610841576103e882600080600185815481106107d057fe5b60009182526020808320909101546001600160a01b03168352820192909252604001902060040154028161080057fe5b046000806001848154811061081157fe5b60009182526020808320909101546001600160a01b031683528201929092526040019020600501556001016107b2565b5050565b6060600180548060200260200160405190810160405280929190818152602001828054801561089d57602002820191906000526020600020905b81546001600160a01b0316815260019091019060200180831161087f575b5050505050905090565b6108af610916565b6108b7610916565b825181523360208083019190915283015160408201526101f460608201819052620186a0608083015260a0820152600160c0820152600060e0820181610733565b60405180602001604052806001906020820280368337509192915050565b6040518061010001604052806060815260200160006001600160a01b03168152602001606081526020016000815260200160008152602001600081526020016000151581526020016000600481111561096b57fe5b905290565b604051806040016040528060608152602001606081525090565b828054600181600116156101000203166002900490600052602060002090601f016020900481019282601f106109cb57805160ff19168380011785556109f8565b828001600101855582156109f8579182015b828111156109f85782518255916020019190600101906109dd565b50610a04929150610a08565b5090565b5b80821115610a045760008155600101610a09565b80356001600160a01b038116811461079d57600080fd5b600082601f830112610a44578081fd5b81356001600160401b03811115610a59578182fd5b610a6c601f8201601f1916602001610d78565b9150808252836020828501011115610a8357600080fd5b8060208401602084013760009082016020015292915050565b600060208284031215610aad578081fd5b610ab78383610a1d565b9392505050565b60008060408385031215610ad0578081fd5b610ada8484610a1d565b9150610ae98460208501610a1d565b90509250929050565b60006020808385031215610b04578182fd5b83601f840112610b12578182fd5b610b1b81610d78565b8084868487011115610b2b578485fd5b845b6001811015610b4a57815184529284019290840190600101610b2d565b50909695505050505050565b60008060408385031215610b68578182fd5b82356001600160401b0380821115610b7e578384fd5b610b8a86838701610a34565b93506020850135915080821115610b9f578283fd5b50610bac85828601610a34565b9150509250929050565b60008060408385031215610bc8578182fd5b82359150610ae98460208501610a1d565b60058110610be357fe5b9052565b60008151808452815b81811015610c0c57602081850181015186830182015201610bf0565b81811115610c1d5782602083870101525b50601f01601f19169290920160200192915050565b60006101008251818552610c4882860182610be7565b91505060018060a01b03602084015116602085015260408301518482036040860152610c748282610be7565b915050606083015160608501526080830151608085015260a083015160a085015260c0830151151560c085015260e0830151610cb360e0860182610bd9565b509392505050565b6020808252825182820181905260009190848201906040850190845b81811015610b4a5783516001600160a01b031683529284019291840191600101610cd7565b6000602080830181845280855180835260408601915060408482028701019250838701855b82811015610d4f57603f19888603018452610d3d858351610c32565b94509285019290850190600101610d21565b5092979650505050505050565b600060208252610ab76020830184610c32565b90815260200190565b6040518181016001600160401b0381118282101715610d9657600080fd5b60405291905056fea2646970667358221220e63f6b8d88b0dc08c4dc15172141b1f7e3d049ea43aa59bb007be05d632076db64736f6c634300060c0033",
  "immutableReferences": {},
  "source": "// SPDX-License-Identifier: MIT\npragma solidity ^0.6.12;\npragma experimental ABIEncoderV2;\n\nimport \"./Market.sol\";\n\ncontract Collateral {\n\n    event Registration(address indexed sender);\n\n    enum CcyPair { FILETH }\n    enum State { EMPTY, NEW, IN_USE, MARGINCALL, LIQUIDATION }\n\n    uint constant PCT = 100;\n    uint constant FXMULT = 1000;\n\n    struct UserItem {\n        string id; // DID, email\n        address addrETH;\n        string addrFIL;\n        uint amtETH;\n        uint amtFIL;\n        uint valueFIL; // evaluated in ETH\n        bool isAvailable;\n        State state;\n    }\n\n    struct UserInput {\n        string id;\n        string addrFIL;\n    }\n\n    mapping(address => UserItem) private userMap;\n    address[] private users;\n\n    MoneyMarket moneyMarket;\n    FXMarket fxMarket;\n\n    function setMarketAddr(address moneyAddr, address fxAddr) public {\n        moneyMarket = MoneyMarket(moneyAddr);\n        fxMarket = FXMarket(fxAddr);\n    }\n\n    function inputToItem(UserInput memory input) private view returns (UserItem memory) {\n        UserItem memory item;\n        item.id = input.id;\n        item.addrETH = msg.sender;\n        item.addrFIL = input.addrFIL;\n        item.amtETH = 500; // TODO - reset to 0 in production\n        item.amtFIL = 100000;\n        item.valueFIL = 500; // value in ETH\n        item.isAvailable = true;\n        item.state = State.EMPTY;\n        return item;\n    }\n\n    function setUser(string memory id, string memory addrFIL) public {\n        UserInput memory input = UserInput(id, addrFIL);\n        UserItem memory newItem = inputToItem(input);\n        userMap[msg.sender] = newItem;\n        users.push(msg.sender);\n        emit Registration(msg.sender);\n    }\n\n    function getOneUser(address addr) public view returns (UserItem memory) {\n        return userMap[addr];\n    }\n\n    function getAllUsers() public view returns (address[] memory) {\n        return users;\n    }\n\n    function getAllUserItems() public view returns (UserItem[] memory) {\n        UserItem[] memory allUsers = new UserItem[](users.length);\n        for (uint i = 0; i < users.length; i++) {\n            allUsers[i] = userMap[users[i]];\n        }\n        return allUsers;\n    }\n\n    function getCoverageALL(uint amt, address addr) public view returns (uint) {\n        return PCT * amt / (userMap[addr].amtETH + userMap[addr].valueFIL);\n    }\n\n    function updateValueFIL() public {\n        uint fxRate = getFILETH();\n        for (uint i = 0; i < users.length; i++) {\n            userMap[users[i]].valueFIL = userMap[users[i]].amtFIL * fxRate / FXMULT;\n        }\n    }\n\n    function getFILETH() public view returns (uint) {\n        uint[1] memory rates = fxMarket.getMidRates();\n        return rates[uint(CcyPair.FILETH)];\n    }\n\n}\n",
  "sourcePath": "/home/bahti/Desktop/ourprojects/smart-contracts/contracts/Collateral.sol",
  "compiler": {
    "name": "solc",
    "version": "0.6.12+commit.27d51765.Emscripten.clang"
  },
  "schemaVersion": "3.2.2",
  "updatedAt": "2020-07-31T18:45:10.960Z",
  "devdoc": {
    "kind": "dev",
    "methods": {},
    "version": 1
  },
  "userdoc": {
    "kind": "user",
    "methods": {},
    "version": 1
  }
}